:020000041000EA
:1000000000B52F4B212058609868022188439860E2
:10001000D860186158612B4B002199600221596109
:100020000121F02299502849196001219960352059
:1000300000F03EF80222904214D00621196600F02A
:100040002EF8196E01211966002018661A6600F054
:1000500026F8196E196E196E052000F029F8012195
:100060000842F9D1002199601849196000215960AE
:1000700017491848016001219960EB211966A021F8
:10008000196600F00CF800219960134911480160CD
:100090000121996001BC002800D11048004703B538
:1000A000996A04200142FBD001200142F8D103BD2E
:1000B00002B518661866FFF7F2FF186E186E02BDDB
:1000C00000000240000000180000070000035F006D
:1000D00021220000F4000018222000A001010010DD
:1000E0000000000000000000000000000000000010
:1000F0000000000000000000000000003E272A6011
:10010000274800E000202749886006C881F3088856
:10011000104725480068002839D112A40ECC0029C8
:1001200002D000F012F8F9E72049214A002000E04F
:1001300001C19142FCD11F4988471F4988471F4987
:10014000884700BEFDE701C901C29A42FBD3704750
:10015000F2EB88715C310110743101106401001000
:1001600090A31AE774310110C00000203C21002048
:10017000F05101100000042000000420F051011093
:1001800000100420001004200000000070470C48FC
:1001900003F014FE0047EFF30580C0B27047000083
:1001A0000002001000ED00E0000000D0402100201F
:1001B00090240120F11F00105D1000101521001087
:1001C0005756000006005250ABB36053900E01101A
:1001D00006005250861C0302A00E01100600525069
:1001E0005422A29DA80E011005005250DE65F4684D
:1001F000F0510110000000000000000000000000AD
:100200000020042013010010C3020010C5020010DA
:10021000C1020010C1020010C1020010C102001092
:10022000C1020010C1020010C1020010C70200107C
:10023000C1020010C1020010C9020010CB02001060
:10024000CD020010CD020010CD020010CD02001032
:10025000CD020010CD020010CD020010CD02001022
:10026000CD020010CD020010CD020010CD02001012
:10027000CD020010CD020010CD020010CD02001002
:10028000CD020010CD020010CD020010CD020010F2
:10029000CD020010CD020010CD020010CD020010E2
:1002A000CD020010CD020010CD020010CD020010D2
:1002B000CD020010CD020010CD020010CD020010C2
:1002C00000BE00BE00BE00BE00BE00BEFFF763FF62
:1002D000103800BEF8B5C046044B10B5002B03D053
:1002E0000349044800E000BF10BDC0460000000004
:1002F000F8230120380A01100C23F0B50B421DD061
:100300000C2807D00D281CD00E2818D00F384342D7
:10031000584100E002207F260B4B0C4D1B882C8897
:1003200001333340A34209D008221140084B890011
:1003300067004018F852631C33402B80F0BD00204A
:10034000E9E70320E7E7C046822401208424012056
:1003500024220120F0B5DE464E4657464546B94BAD
:10036000E0B59B463322532340218FB00600584608
:1003700005F0D8FD584605F00DFFB34B9B78002BD8
:1003800001D000F05CFDB14BB14C0A93B14B0B9323
:10039000B14B0D93AC4BDB78002B00D176E1012201
:1003A000AE4B1A70AE4BDB78002B00D177E1A64B39
:1003B0005B78002B01D000F03CFEA34B1B78002B98
:1003C00000D1E1E10126A74D2B785A1E9946A64B94
:1003D000D2B219782A70881CC3B20A9801930078A7
:1003E000CB1C8446DBB298460B9B0D981B784F1CA8
:1003F0009B00634484461B016344181D8246AC463F
:10040000FFB2019D01911978002901D100F00AFD88
:10041000092A01D900F00EFD0198132801D900F036
:1004200009FD9100891889006118095C002901D033
:1004300000F000FD1979002901D100F0ADFD132F66
:1004400001D900F0F7FC9100891889006118C95D95
:10045000002901D000F0EEFC197A002901D100F04A
:100460007DFD132D01D900F0E5FC9100891889006C
:100470006118495D002901D000F0DCFC197B0029DE
:100480000ED04146132901D900F0D4FC404691001A
:10049000891889006118095C002901D000F0CAFCA4
:1004A00001320133D2B29A45ADD1002E00D06BE1BA
:1004B0006E4BA2461A885B461F686D4BF9186D4B50
:1004C000FE186D4BFD186D4BF8186D4B9C466D4B2F
:1004D000BC4498460023F024A400A146CA52F2521C
:1004E000EA52C2524B444345F5D104310436043537
:1004F00004308C45EED154460D230C94F024059322
:10050000053B06932401F0239B46F0339A46F033D3
:100510009946F0339846F0339C46F033A444E618ED
:10052000F03362469C46F033A44465469C46A4449E
:100530006346099387231B019C46A44463460893A2
:100540000C9BA3440193092307932300A244A144D5
:10055000A0449C46140009E0019B01330193079BD2
:1005600005339BB207936D2B00D12EE3019B1B78C3
:10057000002BF1D0444A013B5B009B5A079A03943D
:10058000510089B24A1C0B3189B20291614692B284
:1005900004910599069881424AD9049C511E89B25A
:1005A00008194000C353A0184000C3535846081808
:1005B0004000C353584610184000C3535046081813
:1005C0004000C353504610184000C3534846081813
:1005D0004000C353484610184000C3534046081813
:1005E0004000C3534046039C10184000C3530819F1
:1005F0004000C35310194000C35388194000C3532F
:1006000090194000C35348194000C353099C501926
:100610004000C35308194000C35310194000C3538E
:100620000898844661444900CB5311184900CB53C4
:100630000232029992B29142ABD1049B039C9C4638
:100640008AE7C04610240120E821012089240120E6
:10065000242301208B240120380A01108A24012040
:10066000E42101208C2401208D24012080240120FC
:10067000241E0000261E00000420000006200000AA
:10068000B41F000080BB00004C240020D34BDB785B
:10069000002B04D0D24B1B78002B00D087E6D14B27
:1006A0005B78002B68D00A98CF4D00782B78844671
:1006B0005A1C9A46CD4B0D981978D2B28B1CDBB2DE
:1006C0009846CB1CDBB299460B9B2A701B784F1CBB
:1006D0009B00634484461B016344AC460D00181D17
:1006E000FFB201901978002900D18AE3092A00D9C4
:1006F0008EE3132D00D98BE39100891889006118CE
:10070000495D002900D083E31979002901D100F067
:100710003CFC132F00D97BE39100891889006118F4
:10072000C95D002900D073E3197A002901D100F0D6
:1007300022FC4146132900D96AE3404691008918FA
:1007400089006118095C002900D061E3197B002948
:100750000CD04946132900D95AE34846910089181C
:1007600089006118095C002900D051E30199013228
:100770000133D2B29942B5D19A4B1B78002B00D0ED
:1007800021E6002E00D193E6984B0A9A1978127848
:100790004E1CF6B21E700B9B934D1B7802939B0070
:1007A000D2180D9B12019C462B786244181DC0B2D2
:1007B0000390081DC0B28046C81CC0B28146881C88
:1007C000C0B2019282469C461800019B1B78002B08
:1007D00046D009284BD8132E49D883001B189B00FC
:1007E000E3189B5D002B42D1019B1B79002B00D1AC
:1007F000ABE35346132B3AD8574683001B189B0094
:10080000E318DB5D002B32D1019B1B7A002B00D15A
:1008100092E34B46132B2AD84F4683001B189B00AC
:10082000E318DB5D002B22D1019B1B7B002B0AD040
:100830004346132B1BD8474683001B189B00E31825
:10084000DB5D002B13D1019B013001330193039B2E
:10085000C0B2834200D12BE6019B1B78002BB8D19C
:10086000019B1B79002B00D161E30928C1D9002726
:100870005E48B14601705A4863460770029817787F
:100880000130002F04D09F00FF18BF00E7197854F3
:100890001779002F05D04E469F00FF18BF00E719BB
:1008A000B855177A002F08D08F1CFFB2BC46664699
:1008B0009F00FF18BF00E719B855177B002F06D01F
:1008C000CF1CFEB29F00FF18BF00E719B85557783C
:1008D000002F07D05F1CFEB2B446B7006744BF00CC
:1008E000E71978545779002F08D05F1CFEB2B44640
:1008F000B7004E466744BF00E719B855577A002F36
:100900000CD05F1CFEB2B4468F1CFEB2B0466646E9
:10091000B70046466744BF00E719B855577B002F1C
:100920000CD05F1CFEB2B446CF1CFEB2B046664689
:10093000B70046466744BF00E719B8559778002FBF
:1009400007D09F1CFEB2B446B7006744BF00E7194A
:1009500078549779002F08D09F1CFEB2B446B70098
:100960004E466744BF00E719B855977A002F0CD060
:100970009F1CFEB2B4468F1CFEB2B0466646B7005E
:1009800046466744BF00E719B855977B002F0CD047
:100990009F1CFEB2B446CF1CFEB2B0466646B700FE
:1009A00046466744BF00E719B855D778002F07D0EF
:1009B000DF1CFFB2BC46BF006744BF00E719785494
:1009C000D779002F14D0DF1CFFB2BC464E46BF00C3
:1009D0006744BF00E719B8550AE0C046E42101208A
:1009E0008A240120E82101208C2401208D2401206B
:1009F000D67A002E0AD08E1CF6B2B446DF1CFFB2A7
:100A0000BE00F6196746B600A619F055D27B002A3B
:100A100008D00333DAB293009B1803319B00C9B2AC
:100A2000E3185854237801269846237D8E49994629
:100A30002823E35C9A463C23E35C07935023E35C62
:100A400006936423E35C05937823E35C04938C238F
:100A5000E35C0393A023E35C0293B423E35C019380
:100A600000239C466278002A00D19FE2A3191F7DD3
:100A7000002F00D19AE21F0028373F78002F00D1C5
:100A800094E21F003C373F78002F00D18EE21F0018
:100A900050373F78002F00D188E21F0064373F783D
:100AA000002F00D182E21F0078373F78002F00D15D
:100AB0007CE21F008C373F78002F00D176E21F00C8
:100AC000A0373F78002F00D170E2B4331B78002BA1
:100AD00000D16BE2012E69D050220F0090461432F3
:100AE00094463300783788448C4401970290CF5C59
:100AF000FF22B94648465D4F1A40BA46B8545C4892
:100B00005244C05C10755B48C05C82462820814618
:100B100091444846574607705748C05C82463C207F
:100B2000814691444846574607704046C05C82461D
:100B30005020814691444846574607706046C05C45
:100B40008246642081469144484657460770019882
:100B5000C05C8246782081469144484657460770DB
:100B60008C20814689444846C05C82468C20814660
:100B70009144484657460770A0208146894448461C
:100B8000C05C8246A0208146914448465746077083
:100B9000B420814689444846C05CB432013B1070A1
:100BA000DAB2012AA3D1314B02989A5D00239A460A
:100BB0009946019302930393049305930693079335
:100BC00001339C46002398464DE70C9B6446143342
:100BD0000C9396231B019C46069B644405339BB2F1
:100BE0000693059B05339BB20593244B9C4200D092
:100BF00089E40B9B0A9A1B7812789B009B180D9A2C
:100C00001B0194469C4463460C9300233D009C4684
:100C10006346DBB202930C9B6344994600234C4627
:100C200018002378002B0DD0154B1978029B98469D
:100C30004144C9B2092905D8124B1B78C318DBB24D
:100C4000132B21D90130C0B204340428E9D1012387
:100C50009846C4446346042BDAD10FB0F0BCBB46BF
:100C6000B246A946A046F0BD23230120242301203B
:100C7000372301204B2301205F230120C06C00009B
:100C80008C2401208D2401209A009E180923984667
:100C90008B00C91808233200B0449A460D96464688
:100CA0000B9BC54F1B780E325B00DB5B8A440A93BB
:100CB00003969642C6D20D22904688444246574635
:100CC000019252467E015200B61A3701B946571CAE
:100CD0003E01F61B3701961CB8463701BF1BD61CD8
:100CE000B3465B463601F61A0A239B468B445B46A5
:100CF00059005B015B1A1B01013104930B01591A66
:100D00000B010593931D1901C91A0B010693D31DFD
:100D10001901C91A0B01079308239B4693445B46AC
:100D20001901C91A09320B0111018A1A0D99089388
:100D300049001D311301039A039161460D91494603
:100D4000360109930A9B0A913100A3464646814623
:100D5000884652003F01013201998A4547D20A9CD8
:100D6000511E89B2081940004353A0184000435354
:100D7000881940004353901940004353C81940005C
:100D80004353D01940004353404608184000435392
:100D90004046049C10184000435308194000435338
:100DA0001019059C40004353081940004353101983
:100DB000069C400043530819400043531019079CF8
:100DC000400043530819400043531019089C400049
:100DD00043530819400043531019400043530998E6
:100DE0008446614449004B53111849004B53023269
:100DF000039992B28A42AFD10D9B48469C465C460D
:100E000020E71979002900D1B2E0092A00D880E44E
:100E1000534665462B70694B1B78002B00D1B0E41C
:100E2000FFF7D1FA1979002900D194E0092A01D8F5
:100E3000FFF705FB65464B462B70FFF736FB604B13
:100E400060490A931B7888469C460133DBB29A4678
:100E50005D4B0D911A785D4B5D4C1D78AB1CDBB280
:100E60001800EB1CDBB299465A4B6F1C0B931B7896
:100E7000FFB29B0053441B0143448046191D01915E
:100E80001978002940D0092A37D8132D35D8910078
:100E9000891889006118495D00292ED11979002926
:100EA00041D0132F29D89100891889006118C95D94
:100EB000002922D1197A00292FD0414613291CD8A4
:100EC00040469100891889006118095C002914D1F5
:100ED000197B00290AD0494613290ED848469100AB
:100EE000891889006118095C002906D1019901322D
:100EF0000133D2B29942C3D1D44662460323134090
:100F00000A9A1370FFF746FA1979002902D0092AC4
:100F1000C7D9F2E7197A002945D1197B0029E5D014
:100F2000092AD8D9E9E7197A0029C6D1D0E7019B67
:100F30001B7A002B00D089E0019B1B7B002B00D18A
:100F400081E4092800D873E491E4019B1B7A002B0B
:100F500000D05EE468E4197A002972D1197B002977
:100F600001D1FFF79DFA092A01D8FFF78AFA61E754
:100F7000197A002960D1197B002901D1FFF7F6FB0E
:100F8000092A01D8FFF7E5FB42E7197A002901D0C9
:100F9000FFF7CFFBFFF7DAFB197A002901D0FFF743
:100FA00060FAFFF76BFA092A87D9A6E70136F6B28D
:100FB000142E11D0A25D56E54C240020E82101201A
:100FC00089240120380A01108C2401208D2401205D
:100FD000242301208B2401206346002B1BD0434691
:100FE00023704B46524623752823E254079A143344
:100FF000E254069A1433E254059A1433E254049AE4
:101000001433E254039A1433E254029A1433E25430
:10101000019A1433E254072102F002FF0B9B0A9A53
:1010200019700023137003222A700B4A1370FFF704
:101030003FFA0126FFF737FB092A01D8FFF779FBB2
:10104000E6E6092A01D8FFF70CFAF3E6092801D8E9
:10105000FFF7DFFBFFF70BFC8D240120F0B5DE4628
:10106000454657464E46E0B53F4883B004F06CFC19
:10107000FF213D4804F0DEFC3C4C012223000C2102
:101080000C2000F01DF9230001220C210D2000F09E
:1010900017F9230001220C210E2000F011F9230082
:1010A00001220C210F2000F00BF9C822002130484A
:1010B00004F038FA2F4C07212078013002F0B0FEFE
:1010C0000023217003212C4A2C4D13702C4A2B60D5
:1010D00011702C4A019313702B4B002499462B4B13
:1010E0002B4F98464B461C6043461C60294B7F2281
:1010F0001B8893469A46284B03201B88D4465345A9
:1011000005D11EE04A4601265654634517D05A1EA3
:101110005B462600D117490E52181A40511A8BB25D
:101120000904C90B7A5A01009042664111406E547D
:10113000032AE7D94246012656546345E7D1164AA9
:101140001380019B0133DBB201931E2B08D90120D0
:10115000FFF700F900230193034804F065FCC1E7A1
:101160000020FFF7F7F8F7E710240120F90200103C
:10117000242301208B24012089240120E421012043
:101180008C2401208D240120E8210120EC21012064
:1011900024220120822401208424012010B5084942
:1011A000084804F0A9FB084B084A1A80084B094A72
:1011B0001A60094A5A60094A9A60094A9A8110BD20
:1011C000C4240020102401208024012021060000D6
:1011D0004C240020B105FB41FEA85E062AF8BA5354
:1011E00026B8FFFFD0231B06F0B51E68C646731E47
:1011F0009E41734230261E40164B00249C46164BDF
:1012000007270F25984600B56644E00803003A001A
:1012100008339B009B5922409200D340290019407B
:101220001D4210D00B0093401A003C300B4B800045
:10123000C250D02342461B061B689B009B58002BC4
:1012400001D02000984701341E2CDED180BCB84666
:10125000F0BDC04600410140AC24002000400140E8
:10126000094A830094464022634410B51C68C000BC
:101270006240C02414408022520113431C60034B7F
:101280009C466044416010BD04C0014000400140E4
:101290000A4B80009C4604236044002901D00821A9
:1012A0000C23002A00D10B00026853400C221A4084
:1012B00080235B01184302607047C04604C00140B0
:1012C00070B50600D02000060468F508601E844151
:1012D0003020644204401448844607203040800097
:1012E00081402800114E3C3064448000AD008151A3
:1012F0006419002A12D08022920114432160D02266
:10130000120612680A49920053500D20094901F053
:10131000FBF801210D2001F0DDF870BDC022920123
:1013200014432160EBE7C04600410140004001400A
:10133000AC240020E5110010F8B5CE464746914692
:1013400080B5EFF3108C72B6104D2B68002BFCD0DB
:10135000BFF35F8FCB08C45CC718072026000123AA
:101360000840C6401A00324033420BD18340234329
:101370003B70BFF35F8F2A608CF31088C0BCB94606
:10138000B046F8BD484600F0C7FEC0462C0100D06C
:101390000021044B044ABFF35F8F02C39342FAD18A
:1013A0007047C046000100D0800100D0044A107888
:1013B000431CDBB2172B00D9102313707047C046B3
:1013C000BC150020024B18688007C00F7047C0464C
:1013D00000C0064083680B4810B5844661446244EF
:1013E000090112019A18591854684B6801209C424F
:1013F00001D802D00020C0B210BD12680B689A421A
:10140000F9D8F7E7FFFFFF0F40BF0020002170472A
:10141000F8B557464E464546DE46E0B51F000DABD3
:101420001B7805009A460C9B1600002B0FD1026812
:10143000947B002C5BD0116863008C461B196344BD
:10144000033B5B789373002B00D1D3730C94394A20
:101450000C9B9446DBB2AA689B460C9B2C686344A9
:1014600094461B010A9A63449A600B9A1E60DA60E4
:101470005F608022D02312031B065A610C9A0C9BDA
:1014800094465B006344033B984600222368434430
:101490009A705A701A70637B9946002B17D05A467F
:1014A0001900A068636898472268002825D1434640
:1014B000D1184B4658465B004B44033BD3189870F9
:1014C0004046125C002A00D05A704B460B705B46B7
:1014D000637332003B00287D00F010FB041E02D035
:1014E0005346002B20D00E9B002B00D01C70F0BC6C
:1014F000BB46B246A946A046F8BD4B465B004B44EE
:10150000033BD1188C464146484651188870D35C3D
:10151000002B00D04B705B46624613704B466373E2
:101520000C9B9945E3D1D4E75946286800F022FD89
:10153000D9E7C046FFFFFF0FF0B5DE464E465746DF
:1015400045460023E0B58DB00A93714B8200D35815
:101550000B90994600239B464B46079300F06EFA8A
:10156000079C06000F006268EFF3108572B61368DF
:10157000002BFCD022000794BFF35F8F2468637BAD
:101580009946002B00D170E09268624B90464B4424
:101590001B01984443461A685B6810001900801BC1
:1015A000B941002968DD0B9800F0A8FA0023002655
:1015B000984600279A46079C6368BFF35F8F5A4698
:1015C0001A6085F310885346002B08D10028C5D136
:1015D0000DB0F0BCBB46B246A946A046F0BDD02334
:1015E000802280211B06920309035A6199619A6146
:1015F0000A9B414618024B461843D0470890099170
:101600006268EFF3108572B61368002BFCD0079464
:10161000BFF35F8F0899099A002A49DB114303D071
:10162000079B1B69002B5ED1079B1B68D97B002998
:1016300007D04A00521819688C4649466244033A5A
:1016400051704A46DA734B46079A013BD168CA5C2F
:101650000132CA545B46079A13615368BFF35F8F28
:101660005A461A6085F3108878E7002300269846CA
:1016700000279A4600209EE7002902D1002800D0CA
:1016800091E70121200000F0F7FB43461E685F68E8
:101690009B68079A9A464346DB689846D3684B4452
:1016A000013B1B780A931B0203431361002082E76E
:1016B0002369002BB8D033003C005B1A94411A0018
:1016C0002300A74219D89F421BD0594604910121FB
:1016D0000391494602914146019151460798009174
:1016E000FFF796FEB6E700F0A9F9089A099B0600F5
:1016F0000F0092197B419942E5D901225242D3173A
:10170000E3E79642E1D901225242D317DDE7C04612
:101710005C240120FFFFFF0FF8B557464E46DE461A
:1017200045469146E0B504009A464268EFF31088BA
:1017300072B61368002BFCD0BFF35F8F2668B57BB1
:10174000002D3ED06F0033687F19033FD9194B78C5
:10175000B373002B00D1F373A268364B94464A460C
:10176000EB181B0163441A6052465A60324A8020CB
:101770009A600022DA60D02300031B0658618A7049
:101780004A700A70737B9B46002B35D02A001900E3
:10179000B068736898473268002820D05B46584686
:1017A0005B005B44D719033BB870D118D35C002BA6
:1017B00000D07B705B460D7073735D451DD00026B5
:1017C00026E06368BFF35F8F1D6088F310880120F7
:1017D0004042F0BCBB46B246A946A046F8BD5B46B7
:1017E0005B005B44033BD3189D70D119D25D002A86
:1017F00000D05A705B460B7075734A465346207D85
:1018000000F07CF9061EDAD02900206800F0B2FB57
:10181000E3685B19013B19786368BFF35F8F0022AF
:101820001A6088F310880020002ED2D108022843C5
:10183000CFE7C046FFFFFF0F0914001070B5184C2A
:101840002368002B00D070BD032000F0EBF80320CC
:1018500000F0B6F91349032000F00AF9182003F04C
:101860004DFE0500FFF7A2FD0F4B2A009C46604489
:1018700080000E496860102000F008FA10212860EE
:10188000102003F03FFE0121A860102003F03AFE73
:1018900003232B75064BE860DD602560D3E7C04667
:1018A000182201203915001040000034D513001013
:1018B0005C240120F8B5040000F0C0F8FA2206000C
:1018C0000F00200000230021920003F029FB801963
:1018D000794104000D008F421AD817D006267642AF
:1018E000F71736196F41AF4237D90026002700F0AD
:1018F000A5F832003B00121A8B41002B16DC002B9E
:1019000028D02900200000F0A3F8F8BD8642E5D9D0
:1019100007267642F71700F091F832003B00121AC2
:101920008B4101246442E517002BE8DD0D4B3200AA
:1019300018683B00FFF7F0FE0028E2DB39000A4A96
:10194000536A994204D8906A8642DAD99942D8D12A
:1019500020BFF5E7002AD4D0E8E7AF42C7D1A642BE
:10196000C3D8C4E71822012000400540F0B5D64690
:101970004F464646C0B5EFF305833F22134018009B
:101980001038EFF3108C72B6204D2A68002AFCD074
:10199000BFF35F8F0122110081401D4C88466163B7
:1019A0001C4917000E788A463100C1400F400A4298
:1019B00009D1BFF35F8F2F608CF31088E0BCBA466B
:1019C000B146A846F0BD14498200646A51588C4261
:1019D0000FD3124BD25843469E4353461E70BFF35B
:1019E0005F8F00232B608CF31088002AE6D090478D
:1019F000E4E70B4A9B00904643441A681A60BFF321
:101A00005F8F00232B608CF31088D7E7280100D06C
:101A1000004005408E24012070240120B4240020C1
:101A2000D03F054010B50100024A0348FFF784FC8F
:101A300010BDC046000C011087240120034B596AD9
:101A40000A00986A596A8A42FAD1704700400540F4
:101A5000064A536A9942FCD807D1044B02E05A6AFD
:101A6000914202D19A6A8242F9D370470040054000
:101A700070B504000D00EFF3108672B61A4A1368B1
:101A8000002BFCD0BFF35F8F002D1BD0200000F097
:101A900033FD164981420AD0200000F035FD0121B6
:101AA000200000F017FD0123A340114A1360114BE1
:101AB000A400E550BFF35F8F00220B4B1A6086F342
:101AC000108870BD0B4BA200D5500122A2400A49DC
:101AD00020000B7893430B70044900F03FFD002178
:101AE000200000F0F7FCE5E7280100D06D19001098
:101AF00038600540B42400208E240120F0B5CE4685
:101B0000474680B52A4C616A0D00A66A616AA942FF
:101B1000FAD18B4207D804D00120C0BCB946B046E8
:101B2000F0BDB242F8D9EFF3108972B6214C2168AA
:101B30000029FCD0BFF35F8F012585401C4C1E4F50
:101B40006563E9B2884639788C464146664631433A
:101B50003970011D89000A51184980004350216ADB
:101B6000002029420BD0616A0800A66A616A81429E
:101B7000FAD18B4202D80AD1B24208D90020BFF371
:101B80005F8F00220B4B1A6089F31088C5E7084B62
:101B900042461D625D636346934301203B70BFF381
:101BA0005F8F0022034B1A6089F31088B5E7C046A7
:101BB00000400540280100D08E240120702401201F
:101BC000EFF3108C72B60A490B68002BFCD0BFF300
:101BD0005F8F01238340074A0748136202789A43C4
:101BE0000270BFF35F8F00230B608CF31088704787
:101BF000280100D0004005408E240120024B9C4665
:101C000061448900016070474000003410B5040051
:101C1000FFF7CCFB01002000FFF7F0FFBFF35F8F61
:101C200010BDC04670B5050014001600002915D07F
:101C30000C00002A12D080686B6898472968002839
:101C40000ED073009B196200033B1219CB18033AA4
:101C50009C7088188A5C002A15D10670200070BD1F
:101C600063001B197200033B9219CB18033A9E7054
:101C700088188A5C002A02D104703400EEE75A709A
:101C800004703400EAE75A700670E7E7F0B5C6461C
:101C900005000F0000B510210120160003F032FCF2
:101CA000EBB204000373032147602800984603F059
:101CB00029FC002363730133A3734346FF21E373BD
:101CC000FE232060A66029402B4206D0421CFD3B2B
:101CD0000133137003328B42FAD34B00591800239F
:101CE000401803384370200080BCB846F0BDC046A1
:101CF000F8B5CE46474606000C0080B5002907D04F
:101D00004D0003686D18033D5A195778002F04D110
:101D10002000C0BCB946B046F8BD7900C9190339E6
:101D20008846434459788946002159705170736838
:101D30003A002100806898473368002814D0424652
:101D40009A18947059195B5D002B00D053700F7076
:101D5000270049463000FFF7CBFF39000200300072
:101D6000FFF760FF0400D3E7424641465D19AF70BC
:101D70009A185B5C002B00D06B701470E9E7C046CA
:101D8000F0B557464546DE464E46E0B50D006B00C1
:101D900001685B19DF1E0400C85D83B00192CA1997
:101DA00000284CD043001B18033BCB185E78B44688
:101DB000002E16D1019E002E3ED1E67B002E04D0CF
:101DC00073009B19CB18033B5D70E57300282FD17E
:101DD0000023537003B0F0BCBB46B246A946A046F0
:101DE000F0BD72006244033A89184A789046002296
:101DF0004A7091465A70010032002000FFF712FF2E
:101E000043468246002B07D05B0021684344033BD6
:101E1000CB185A78002A16D1424651462000FFF7C7
:101E200001FF2168019BCA19002BC6D00028CFD022
:101E300043001B18033BCB1800219970C8E7019B96
:101E4000002BC5D1B9E7500080180338091848782D
:101E5000834648464870587041462000FFF7E2FE2E
:101E6000594680462000FFF743FF4146020020000C
:101E7000FFF7D8FE8046CFE7F0B557464546DE4629
:101E80004E46E0B583B00191457B04006B000068CD
:101E90005B19DF1EC15DC21900294ED04B005B18D3
:101EA000033BC3185E78B446002E18D1019E002E65
:101EB00040D1E67B002E04D073009B19C318033B6E
:101EC0005D70E573002931D10023280053706173E0
:101ED00003B0F0BCBB46B246A946A046F0BD7200B6
:101EE0006244033A8018427890460022427091463C
:101EF0005A7020003200FFF795FE43468246002BC1
:101F000007D05B0021684344033BCB185A78002A72
:101F100017D1424651462000FFF784FE019B010085
:101F20002068C219002BC4D00029CDD04B005B180B
:101F3000033BC31800209870C6E7019B002BC3D158
:101F4000B7E7500080180338091848788346484698
:101F50004870587041462000FFF764FE594680469D
:101F60002000FFF7C5FE414602002000FFF75AFEA1
:101F70008046CEE770B5040000292CD0437B8B420D
:101F80002ED0056848004018033828188278002AA7
:101F900021D053009B18033BEA5CEE188A4202D121
:101FA0001BE0002A08D053009B18033BEB185A781B
:101FB0008A42F6D142785A7000230022837043701F
:101FC0002000FFF7DDFE617B02002000FFF72AFE04
:101FD0006073012000E0002070BD43783370EBE7B0
:101FE00000221900FFF7CCFE60730120F4E7C04621
:101FF000F8B52B4A2B4B2C491A602C4A2C4B1A60F3
:1020000014008B689C43FBD12A4D2B4EB54208D25D
:10201000013E761BB60808CD984723000134B34231
:10202000F9D100F097F8254A214B1A601E4A9368AF
:10203000DB43DB01DC09002BF9D14022204B214D91
:10204000214F9A675A671A67DA66BD420BD200269B
:10205000013F7F1BFF082800FFF7D8FD083533003C
:102060000136BB42F7D1194E194DC022A968300084
:1020700003F05EFAAE60FFF78BF900F0ADFBFFF7FF
:10208000DDFB144D144EB54208D2013E761BB60856
:1020900008CD9847230001349E42F9D1F8BDC046CF
:1020A000BFCDFFFF00E0004000C00040FE7F3C00CD
:1020B00000F000402021002030210020FFFFFF0120
:1020C00000F0014018210020202100200000002005
:1020D00000ED00E0302100203C21002000BEFDE7A3
:1020E000094A03001068002805D00849C3188B422C
:1020F00007D21360704706480449C31810608B422A
:10210000F7D301204042F5E7F0230120000004202E
:102110009024012000BEFDE70FB400B5084883B04D
:1021200003F0EAFA049B002B07D005A918000191DF
:1021300001F024FE034803F0DFFA00BEFDE7C046CD
:10214000240C0110DC10011010B50148FFF7E4FF6A
:10215000340C011030B50C2083B000F071F9FFF79A
:1021600031F900280ED09A4B9A4A1A605A609A6048
:10217000DA601A615A619A61DA611A62964A5A62A1
:1021800003B030BD954CA06700F062F90122944B7A
:102190001A60636C012BFCD10322924B1A608F4AA8
:1021A000936B012BFCD1C0228F4B92011A608F4B95
:1021B0008F491A6010008B689843031EFAD10224DD
:1021C00001218C4A8C480633009400F055F9052310
:1021D0008A4A01218A48009400F04EF9894B5A68D6
:1021E000FF2A02D8802252005A608022784C7D4B10
:1021F00021691201834D1A60002905D0606901F040
:102200003BFE01300138FDD1E0217E4B02201A68EF
:102210001140802252012A4311601968484003216D
:102220000140116004219A681142FCD08022802173
:1022300092012A4309011160802252005A60724BB8
:102240002361724B5968FF2900D85A600321644A00
:102250006E4B116002399A681142FCD0E0201A6876
:102260001040802252011A43106018684840032130
:1022700001400220116065498A681042FCD080222A
:1022800092011343802212011A608022604B520097
:102290004A6063615F4B5968FF2900D85A60802209
:1022A0005D4BE16912015B4D1A60002905D0606940
:1022B00001F0E2FD01300138FDD1E02255490B6803
:1022C0001A4080235B012B431A60802380229B01EC
:1022D0002B4312011A6080223E4B52004A60E36198
:1022E0004E4B5968FF2900D85A6080224C4B216A16
:1022F00012014A4D1A60002905D0606901F0BCFD49
:1023000001300138FDD1E02244490B681A40802396
:102310005B012B431A60802380229B012B43120117
:102320001A60802380225B004B602A4BD20223621A
:102330003C4B5968914200D25A6080223A4B616A04
:102340001201384D1A60002905D0606901F094FD32
:1023500001300138FDD1E02232490B681A40802358
:102360005B012B431A60802380229B012B431201C7
:102370001A608023DB024B60174B63622B4B5A6859
:10238000FF2A02D8802252005A608022284BA1697D
:102390001201264D1A60002905D0606901F06CFD1C
:1023A00001300138FDD1E02220490B681A4080231A
:1023B0005B012B431A60802380229B012B43120177
:1023C0001A6080235B004B60114BA361D8E6C046C6
:1023D000F0210120006CDC021BB7000000800040EF
:1023E0003CB0004030B0004000E0004000F0004051
:1023F00000C00040002F68590080024000389C1C3B
:1024000000C0024030800040001BB7003C8000400C
:10241000405973075480004054B000406080004031
:1024200060B000406C8000406CB0004048800040CC
:1024300048B00040014B8000C0587047F021012097
:102440008023024A9B000343D3627047008005400B
:10245000AA23064A1B0113602F230549D360054BAD
:1024600019605368002BFCDA7047C04600400240F8
:1024700000B0FA0000600240F0B5C64600B51E008C
:1024800006AB1F7801235B42436000230400836096
:1024900001600C20904601F0EFFC4101091A8D010A
:1024A000691AC90009188901404601F0E5FCC021FC
:1024B000231D890119432123A0600B602268002A93
:1024C000FCDA08233F0336043E43E6600B6080BC21
:1024D000B846F0BD01238340002904D0034A1360AD
:1024E000034A13607047034A1360FBE780E200E091
:1024F00000E100E080E100E0024B10309B688000CA
:10250000C058704700ED00E070B50D00EFF3108685
:1025100072B60F4A1368002BFCD0BFF35F8F0D4BD0
:1025200010309B6884001B590B4A934203D09D4294
:1025300001D0FFF709FE074B9B681D51BFF35F8F6A
:10254000BFF35F8F0022024B1A6086F3108870BDC4
:10255000240100D000ED00E0CD020010F0B5DE4611
:1025600057464E464546E0B50C0083B0EFF3108A5F
:1025700072B65E4A1368002BFCD0BFF35F8F102247
:10258000914681444A465A4B96009B689D59594B47
:1025900098469D4205D0A54216D0574FEB1B2F2BD6
:1025A00014D9534B9B689D51BFF35F8FBFF35F8F6F
:1025B00000224E4B1A608AF3108803B0F0BCBB4671
:1025C000B246A946A046F0BD1D00EAE701238340BC
:1025D0009B465A46494B1B681A4000925A46484B44
:1025E0001A60BFF35F8FFDF7D6FD0190002803D07E
:1025F000814501D0FFF7A8FD0123290099438B688D
:10260000A34268D00A0007E043001B189B00FB1898
:102610009868A04211D01A00062010560028F3DA5C
:10262000009B002B05D05A46364B1A60334B1A607C
:10263000B7E75A46324B1A60B3E70620185600280F
:1026400021DB4200111889007C188846A168996036
:10265000E179D97106216156997100292BDBA48893
:10266000F91A6405241544440919E0240905490DA3
:102670002402214399801218234B9200BF181A7824
:102680001870BA71CCE70198002817D1FF3090710B
:102690001E4890801C4AC91B1078891098718B00C5
:1026A0005B1818011B1818021B1818041B185B0074
:1026B0005B181370B4E7BD210902DBE7144A154922
:1026C000D21A083A5002400D01439980124952082B
:1026D0000A43DA80A4E7062008560B000028B0DA87
:1026E000019A002AEAD14546D4E7C046240100D029
:1026F00000ED00E0CD020010C015002000E100E078
:1027000080E100E080E200E08824012000BDFFFFBE
:10271000FA15002000F0FFFF00F8FFFF70B501255B
:1027200004000543FDF737FDEFF3108C72B6244A21
:102730001368002BFCD0BFF35F8F224E8000A11BDB
:1027400089108A0052181301D2181302D2181304E8
:10275000D3181D4A5B005B1891680958A9421CD028
:102760000622B2569A421CD01222B256934222D06E
:102770001E22B256934220D02A22B25603219A42F8
:1027800010D0124A11781370A171BFF35F8F00222D
:102790000B4B1A608CF3108870BD92680C49115075
:1027A000EFE700214A005218FF219200B218917100
:1027B00008499180E5E70121F4E70221F2E7C046EC
:1027C000240100D0C015002000ED00E08824012085
:1027D000CD02001000BDFFFFF0B500220324FF274B
:1027E000802620003D00094B11009C461040C0008F
:1027F0008540A14361440B680132AB4335008540FD
:102800002B430B60202AECD1F0BDC04600E400E071
:102810009A4200D2885470477047C046F8B5574670
:102820004E464546DE46E0B599460A9B07009A4665
:102830000D9B8846934615000B9E9B0710D10C9B61
:102840009E420DD29D1B14000E005D4422004B469B
:10285000013431002020B847A542F7D1B0460B9E85
:10286000002E27D0444675195346AA1B013E985D99
:1028700021004B46B847002EF6D123002C00984685
:102880000D9B9B070FD55B46E51A0C9BAB420AD903
:102890004646984622004B46310020200135B84775
:1028A0000134A845F6D82000F0BCBB46B246A94684
:1028B000A046F8BD2C00E3E7F0B54F464646D646A5
:1028C000C0B584B098460EAB1B78129F99469446CB
:1028D0000D9C109B119EBA0725D4002E4BD19C4213
:1028E00000D3BFE001223A4092461F2C00D9B8E045
:1028F0000C9A551E302201E0202C03D001342A55B9
:10290000A342F9D85246002A0DD0A6420BD9202C5A
:1029100044D00C9A551E302201E0202C3ED00134C8
:102920002A55B442F9D1FA064DD57A053FD4002C88
:1029300039D10F9B102B00D179E00F9B022B00D1D6
:102940008AE030230C9A012413704B46002B3FD0B1
:102950002D230C9A135501340C9B62460093039768
:10296000434602960194FFF759FF04B0E0BCBA4613
:10297000B146A846F0BD012215003D40AA463A42A4
:102980002FD04A46002A02D10C323A4200D0013EF2
:102990009C42BAD21F2CABD9202E27D92024FA066C
:1029A000DAD57A0503D4A3422DD0A6422BD00F9BB3
:1029B000102B32D0022B20D0202CCDD030220C9BDB
:1029C0001B191A700134202CC6D04B46002BBFD1E6
:1029D0007B070DD43B07BFD520230C9A1355013438
:1029E000BAE79C429FD21F2C00D881E720249AE7A7
:1029F0002B230C9A13550134AEE7202CACD00C9B42
:102A00001B1901343AE0631E012C92D00F9A102A50
:102A10002AD0022A2FD01C00D0E7BB060ED4202CCF
:102A20009AD00C9B1A19013478231370C4E7BB06A3
:102A30000DD478230C9A01241370BFE7202C00D109
:102A40008AE758220C9B1B191A700134B4E75823EB
:102A50000C9A01241370B1E70C9A603301241370AF
:102A6000ACE7202400265EE7023CBA06E9D40C9AC3
:102A700012191C00D8E70C9A9246534462221A702D
:102A80009AE7C04610B5002800D110BD02F026FE1E
:102A9000FBE7C046F0B5DE4657464E464546E0B534
:102AA0009BB09A46249B8B469946259B0B90984653
:102AB0000C9243464A464846414601F09AFC00289B
:102AC00000D095E1012248464146E14B524201F0D7
:102AD0008BFC002800D08BE1012248464146DD4BAB
:102AE000524201F06BFC002800D081E1002200235B
:102AF0004846414601F062FC002800D09CE14A466D
:102B000043460A9209938023289ADB001A401192C7
:102B1000289A1A4201D106232693CF4B099F9C463F
:102B20007800400D604401F077FCCC4ACC4B01F0BA
:102B300003FCCC4ACC4B01F0EDFB3B03CB4A0A9E95
:102B40001B0B1A4304000D0030001100C84B00227B
:102B500001F0D7FBC74AC84B01F0EEFB02000B00A7
:102B60002000290001F0D6FB01F06EFC0D9001F071
:102B700053FCC24AC24B04000D0001F0DDFB0022F1
:102B8000C04B01F0C7FB01F05FFCBF4A0600BF4B22
:102B90002000290001F0D0FB040030000D00109649
:102BA00001F03AFCBA4ABB4B01F0C6FB02000B0035
:102BB0002000290001F0A5FB02000B0006000F0019
:102BC00001F0BAFB320004000D003B003000390078
:102BD00001F0A0FB00220E900F91AF4B20002900C6
:102BE00001F0A1FB0022AD4B01F094FB02000B00B1
:102BF0002000290001F097FB0022A94B01F08AFB7D
:102C000002000B002000290001F08DFB0D00802147
:102C1000040032003B000020C90501F072FB0200F5
:102C20000B002000290001F075FB02000B000E983C
:102C30000F9901F078FB00228C4B01F06BFB109B8D
:102C4000984A1C00944664440022230501F074FB5A
:102C500006000F0002000B000A98099901F0AEFB74
:102C600000280AD00D9B3000013B39000D93002253
:102C70008A4B01F058FB06000F000D9DC6242B0067
:102C800063339C42A441289B644204341B051FD536
:102C9000854A864B0A98099901F09EFB002800D1CD
:102CA000BFE00022824B0A98099901F087FB0028B7
:102CB00000D1B6E0269A954200DAC4E000232693BC
:102CC0008023289ADB001A430023002428920D93C6
:102CD000279B0025A34200D91D1B0223289A1A40D6
:102CE0001092289A134203D0634263415B421D4015
:102CF0000D9B002B07D00A98099932003B0001F088
:102D000012FB0A900991002200234846414601F037
:102D100055FB002805D080200006844609996144AF
:102D20000991289A634B0B9E13400493269B0A9AA1
:102D30000293099B03950092019359465346300034
:102D40000C9A00F0B9F80500002C62D0289B2A00EC
:102D500098061F23C01798436B1C98465946534644
:102D60006530B0470D9B0026DA179D18DB0F99469A
:102D70005540013C01E0202E13D00AAA94461F239F
:102D8000280063440A2101369F1901F075F830319B
:102D9000397028000A2101F06FF82F000500092F73
:102DA000E9D805230693002304930A3303934B4683
:102DB0000B9F029312AB009342465346594638008C
:102DC00005940196FFF778FD109B0500002B20D09D
:102DD0000C9BC41A279BA3421BD91E002A005346F2
:102DE000594620200134B8470135A642F6D810E0F4
:102DF000289B4A460493279B59460393269B0B988E
:102E0000029343460092019353460C9A00F054F803
:102E1000050028001BB0F0BCBB46B246A946A04640
:102E2000F0BD269B002B00D152E7119B5A1E934107
:102E3000269AD31A26934BE74B460A9380231B0608
:102E4000434409935FE6501B431E269338E7C04670
:102E5000FFFFEF7FFFFFEFFF01FCFFFFFB799F50BC
:102E60001344D33FB3C8608B288AC63F0000F03FAD
:102E70000000F83F61436F63A787D23F71A37909D0
:102E80004F930A400000E03F1655B5BBB16B0240BE
:102E9000EF39FAFE422EE63F00002C4000002440AD
:102EA00000001840FF0300002D431CEBE2361A3FE0
:102EB00080842E41FFF7FFFFF0B54E46DE465746B1
:102EC0004546E0B597B09946209E219F229B8346B8
:102ED000984607910C923B0032003000390001F017
:102EE00088FA002800D0A9E1012230003900CA4B3D
:102EF000524201F063FA002800D0E1E001223000E4
:102F00003900C64B524201F06FFA002800D0B7E0FA
:102F1000002230003900C24B01F066FA002800D0D0
:102F200099E0002230003900BE4B01F047FA00283A
:102F300000D090E0002200233000390001F03EFA7A
:102F4000002800D0B1E000230D93249B5B0501D441
:102F50000623984608AB9C4617220024302341469E
:102F6000624404E0013413550139202C01D00929B1
:102F7000F8D888463000390001F066FA4346DA0096
:102F8000A94B05009B181A685B680892099301F029
:102F900043FA02000B003000390001F0B2F9089A40
:102FA000099B01F0C9F90A900B9101F071FA824670
:102FB00001F02EFA02000B000A980B9901F0A1F91A
:102FC00000229A4B0A900B9101F00EFA002800D1D2
:102FD000C0E001239C46E244504601F019FA020089
:102FE0000B000898099901F0EFF9002802D000239E
:102FF0009A4601354346002B6AD008AB17269C46FB
:1030000008956644554614E001235B4243440A2177
:1030100028009A4600F030FF0134303137193970FA
:1030200028000A2100F028FF092D00D8D0E0D04662
:103030000500202CE8D10EAB98460323249A1340B8
:10304000012B00D196E02023249A01930392239A26
:10305000434602921EE0249B58460493239B00960D
:103060000197039343460C9A029307994B46FFF747
:1030700011FD17B0F0BCBB46B246A946A046F0BD54
:10308000249B5B070ED40322694B24990192039180
:1030900023990291009358464B460C9A0799FFF7E3
:1030A000BDFBE6E70422634BEFE73B003200002064
:1030B000002101F026F9012306000F000D9344E7DB
:1030C000249B0393239B0293042301935A4BE1E730
:1030D000280001F0A1F902000B003000390001F0D6
:1030E00010F9524B002206000F0001F067F90EABF9
:1030F000984600280AD10022300039004B4B01F0DD
:1031000073F9002802D1EB0700D50135202C94D0AB
:1031100008AA94461723280063440A2101341E1983
:1031200000F07EFE3031280031700A2100F078FE78
:10313000051EEBD10323249A1340012B1BD0202C16
:1031400000D180E70D9B002B35D02D224146631C1A
:103150000A5579E700220A980B99344B01F02EF9B1
:10316000002800D046E75346002B51D101239C464E
:10317000E2443FE72024239B002BE0D00D9B002B53
:1031800003D1249A0C33134202D0239B013B239397
:10319000239BA342D3D908AB9C4617223023624419
:1031A000202C00D14FE72399013413558C42C6D00F
:1031B000202CF8D147E7249B5B0724D4249A2300D2
:1031C000120700D440E72022414601330A553BE76D
:1031D0005746089D202C00D12DE722003021404683
:1031E000002F09D00132B154202A00D123E7D34364
:1031F0001B191B18002BF5D10EAB98462E23414608
:10320000541C8B5482E72B224146631C0A551BE752
:10321000DB0700D4EEE6A9E7FFFFEFFFFFFFEF7F3C
:1032200065CDCD4165CDCDC1380E01100000E03F28
:10323000400C0110440C0110500C0110249B03930E
:10324000239B029303230193004B23E74C0C0110B3
:10325000F0B5DE464E4657464546E0B59FB01C00E9
:10326000289B91460993C94AC94B8B4608901A601E
:10327000002900D118E2002320789A46002800D1C6
:103280001AE226001D005C460AE02A006F1C4B462D
:10329000089D2100A8473D0001363078002870D0F5
:1032A0002528F2D110239B46083B9A46043B9846BA
:1032B000023B00219C46721C107816000300203B44
:1032C000DBB2102B03D8B34F9B00FB589F46030083
:1032D000303B092B32D900230A932A2868D00023D7
:1032E00098462E283ED00300683BDBB2122B1CD838
:1032F000A94A9B00D3589F46012301321943DBE7BB
:10330000634601321943D7E7434601321943D3E7F5
:103310005B4601321943CFE7534601321943CBE7ED
:1033200080235B007078194301360300253BDBB234
:10333000532BAAD8994A9B00D3589F4600270300D5
:10334000B800C01901364000C018337830381A0070
:10335000303A0700092AF3D90A901800002398464A
:103360002E28C0D180237078DB0019430300303B46
:10337000721C092B00D8A1E12A2800D1B2E1160065
:10338000B1E7A346AA462C00D14503D801235B42EE
:103390004B449A464B46524659460020089DA84742
:1033A00020001FB0F0BCBB46B246A946A046F0BD07
:1033B000099B40CB0A96002E03DB50780993561CDC
:1033C0008DE72838014370420A9009935078561CC3
:1033D00085E7782800D1DFE1582800D14CE26F283A
:1033E00000D14FE3622801D100F030FC10230A0025
:1033F0009A430B92692801D000F0A9FC0A230C9390
:103400004B0500D5D0E10B9A802311009B00194099
:103410008B461A4200D0A1E2802311005B001940C4
:103420008A461A4200D0B6E313005B0600D5EDE2EF
:10343000130009991B0601D400F076FC08C91BB2E1
:10344000D8171A18424092B209919346DA0F129295
:10345000002B09D1802310220B99DB000B409143F4
:103460000B91002B00D0E4E20B9A6123920600D569
:1034700041230EA91F228C46DBB262440A3B5F4601
:103480001395A34655460C9CB2460D9316000AE0D0
:103490003033DBB201357355A74200D2EDE2202D67
:1034A00000D1EAE207002100380000F0E5FCCBB2D1
:1034B0000929EDD90D9A94466344DBB2EAE78023EB
:1034C0009B007078194301362FE77078682800D187
:1034D000CDE180230136194327E770786C2800D1AD
:1034E000BFE180235B00194301361EE7462800D167
:1034F0009BE10722099B0491073393430A9A190021
:103500000392424602920CC90898009201930991D5
:103510002A004B462100FFF7CFFC01360500BCE630
:103520002A006F1C4B46089D21002520A847013624
:103530003D00B2E68B0700D4ADE1099B2A009A4614
:103540006B1C9846534601CB21009A46089F4B4678
:10355000C0B2B8470A9B9C466544012B00D886E25E
:10356000089B4746B04626004C4699463A00230041
:10357000013731002020C847AF42F7D1A14653465A
:10358000340046460993013687E6C04651320010A2
:10359000F4230120580C01109C0C0110E80C0110C0
:1035A000099B04CB9B4643460992002B00D1C6E001
:1035B00013789C46002B00D1BDE34346013B099A9A
:1035C0000133D0180A9F130001E0834203D05A78D8
:1035D0000133002AF9D1099A0A979B1A0B93802389
:1035E0000A00DB001A400C92194204D00B9B4345A1
:1035F00001D943460B9302231A000A400D920B4255
:1036000000D187E16046002800D168E10C9B002BC7
:1036100000D10DE1A844C246099B57465B1B984662
:10362000089BB2462A0026004C46994609E0230032
:103630003100551CC8474346585D002800D126E19B
:103640002A009742F3D1A1463D00340056460D9B17
:10365000002B00D043E15B46013609931DE6099B30
:103660001A0008CA9246002B48D0212211438B46EB
:103670000EA884461F216144099500220F27A44605
:103680000D0002E0202A0CD00B003C001C40200062
:103690003730092C00D807380132A85419090F2BEC
:1036A000F0D86446099D32E0DC4B20780893002373
:1036B0009A46002800D0E4E5002465E6434606006B
:1036C0000A9F9800C0180132400080191678030044
:1036D00030003038303B0928F3D9300098461600C6
:1036E0000A9700E6099B023604CB9046D243404637
:1036F000D2171040804609933078F4E51022080074
:10370000904311321043834600224905B0D55B46F1
:103710000693082305934346049310230393002341
:10372000029316AB019200932A004B4621000898A1
:10373000FFF7C2F85346050001360993ADE513784B
:103740009C46002B00D1F7E202235B4237E720239F
:1037500002009A43472A04D180231B011943022304
:103760009843452801D1202319430722099B04913E
:10377000073393430A9A19000392424602920CC9F6
:1037800008980092019309912A004B462100FFF707
:1037900081F90136050080E510230C930C230A0003
:1037A0009A430B924B0503D501230B9A9A430B9234
:1037B000692800D127E6642800D124E60B9A8023EB
:1037C00011009B0019408B461A4200D066E180230D
:1037D00011005B0019408A461A4200D039E21300FA
:1037E0005B0600D53CE113001B0600D4A6E2099B52
:1037F00004CB1204120C934609935B46002B00D0B5
:103800009AE10B9A1033110099430B91520500D4A1
:1038100092E100239A460B9B06930A9B059343462D
:1038200004930C9B039300230CE12023194360E6CF
:10383000099B0A9A5B1B98464B4691461F00B2466D
:103840002600089C2A003B003100A0474346013572
:10385000585D0028F6D14A463400B94656460A92C9
:10386000F5E6C0239B00B078194302365DE5C0231E
:10387000B0781943023658E50C230A009A431433F2
:103880001A43103B0B920C934B058DD496E7A1463F
:1038900034005646DBE60A9A012A00D853E26B1E32
:1038A0009F18089BB04626004C4699462A002300E4
:1038B000013531002020C847BD42F7D1A146340070
:1038C0004646099B3A0001CB210098467D1C4B4699
:1038D000089FC0B2B847434601360993DDE40B9B0D
:1038E0000A99A846994200D8B5E68C466544ED1A77
:1038F000089B4746B04626004C4699463A002300AE
:10390000013731002020C847AF42F7D1A14634002B
:103910004646A0E60B9A0A98531C904200D814E23F
:1039200043199B1A1F00089BB24626004C46994635
:103930002A002300013531002020C847BD42F7D1BD
:103940000A9BA14601330B93099B34001B78564612
:103950009C466046002800D058E67CE60722099B7A
:1039600007339343013294469C4462465F68099250
:103970001A68FB1710931193109811990300534084
:103980000E930B007B400F9394460E9A0F9B121AD6
:103990008B410E920F93FB0F6246129300233A4322
:1039A0009B463DD00B9A6123920600D5412300220D
:1039B000DBB20EA90A3B8C4692460D9343461F325A
:1039C00062441395159655460E9E0F9FA24690464B
:1039D0000C9C14930CE03032D2B2434601355A5558
:1039E000BB4500D18AE1202D00D18AE106000F00FD
:1039F000220000233000390000F084FAD2B2092AF4
:103A0000E9D90D9B9C466244D2B2E6E7FF230999AF
:103A100004C913401A00099117E5C046192800107F
:103A20000B9A1033110099430B915205BAD500231C
:103A30009A460B9B06930A9B0593434604930C9B63
:103A40000393129B02935346019316AB2A000093F3
:103A500021004B460898FEF72FFF013605001CE4B5
:103A6000FF22099B02CB11408B460993C5E65346C2
:103A7000454609930136FFF710FC56465C46AA46B8
:103A8000139DD6E708230C930B910B99642800D063
:103A900084E60B9B5B0500D586E6B4E40722099B10
:103AA00007339343013294469C44624609921A6854
:103AB0005B6810009B4613005A46134307D10B9ACC
:103AC0001033110099430B91520500D5A1E60B9AD2
:103AD0006123920600D541230022DBB20EA90A3BE6
:103AE0008C4692460D9343461F3262445F461295C0
:103AF000A34655460400B24690460C9E13930DE033
:103B00003032D2B2434601355A550023BB4200D170
:103B100000E1202D00D100E104000F00320000235D
:103B20002000390000F0EEF9D2B2092AE8D90D9B45
:103B30009C466244D2B2E5E70B9A6123920600D517
:103B40004123DBB20EA90A3B1F228C460D932300B2
:103B500062445C461295170055469B46B2460C9E41
:103B600008E03033DBB201357B55B4420ED3202D53
:103B70000CD004003100200000F07EF9CBB20929FE
:103B8000EFD90D9A94466344DBB2ECE756465C46A7
:103B9000AA46129D3FE6099B1A0008CAD91713923C
:103BA0005A184A409246DA0F1292002B08D180230D
:103BB00010220B99DB000B4091430B91002B2BD172
:103BC0000B9A6123920600D541230EAA1F27944623
:103BD000DBB20A3B0D9567445D460993A346544604
:103BE000B2460C9E08E03033DBB201357B55B4425F
:103BF0000ED3202D0CD004003100200000F03CF941
:103C0000CBB20929EFD9099A94466344DBB2ECE7B9
:103C100056465C46AB460D9D0B9B2A0006930A9BBD
:103C200021000593434604930C9B08980393129B31
:103C3000013602935B46019316AB00934B46FEF7A9
:103C40003BFE139B05000993FFF727FB02230C9310
:103C50001AE7099B04CB92461293002A08D18023CD
:103C600010220B99DB000B4091430B91002B2BD1C1
:103C70000B9A6123920600D541230EAA1F27944672
:103C8000DBB20A3B0D9567445D460993A346544653
:103C9000B2460C9E08E03033DBB201357B55B442AE
:103CA0000ED3202D0CD004003100200000F0E4F8E9
:103CB000CBB20929EFD9099A94466344DBB2ECE709
:103CC00056465C46AB460D9D0B9B2A0006930A9B0D
:103CD00021000593434604930C9B0898039300230B
:103CE00002935B46019316AB00934B46FEF7E4FD4F
:103CF000129B050009930136FFF7CFFAB44200D8B2
:103D000071E6149B54460E960F97AA469846159E48
:103D1000139D8EE6A64200D8FBE6139B56469846B6
:103D2000AA465C46129D76E508C9D8171A18424083
:103D30000991FFF78AFB00230B9350E4099B04CB06
:103D40009346099359E52F00BBE50B9301E6063B2B
:103D50000C939AE60EB4012210B585B007AC08CCDE
:103D600001000094524204480394FFF771FA05B031
:103D700010BC08BC03B018471128001010B5094A40
:103D80000300146884B0002C08D00122009106487A
:103D9000524203A9A047012004B010BD01F0ACFCC1
:103DA0000020F9E7F4230120852A001001480421AE
:103DB000014B184710160020DD3D0010142310B5EC
:103DC0000100188804331B88984710BD162310B5CE
:103DD0000100188802331B88984710BDF8B5474684
:103DE000CE4680B50F1E19D0142399460433040023
:103DF0000025012698464B461888434621681B88B3
:103E0000984701C4431E9841013540420640AF42E5
:103E1000F1D13000C0BCB946B046F8BD0126F8E784
:103E2000144A936F9B0815D29066D166002905D07D
:103E3000FFE7FFE7FFE7516F106F704704B5802180
:103E40000906C2175140002800D0C8430CF094FD69
:103E5000002104BD936F5B08FDD3F0B5946ED56E61
:103E6000576F166FFFF7E0FF9466D56657671667C2
:103E7000F0BD0000000000D0134A936F9B0813D2DE
:103E800010665166002905D0FFE7FFE7FFE7516F95
:103E9000106F704704B5002801D00020C0430CF01B
:103EA0006BFD002104BDC046936F5B08FDD3F0B5E8
:103EB000946ED56E576F166FFFF7E2FF9466D56666
:103EC00057671667F0BD0000000000D094464E4AC8
:103ED000926F9208624601D230E0C046F0B54A4E79
:103EE000B56F6D08FCD3346E756E776F366F00F06A
:103EF00025F89446444A1466556657671667624625
:103F0000F0BDC0469446404A926F9208624601D284
:103F100058E0C046F0B53C4EB56F6D08FCD3346E2A
:103F2000756E776F366F00F04DF89446364A14661A
:103F30005566576716676246F0BDC046002B24DB06
:103F400011D000293EDA00B5C943404200D1013109
:103F500000F038F8C943404200D10131DB435242FE
:103F600000D1013300BD002AEBD1002801D1002986
:103F700005D00020C90FC90701D1C043410800B5D1
:103F80000CF0C2FC0022002300BD00B500290ADBB2
:103F9000DB43524200D1013300F014F8C9434042E0
:103FA00000D1013100BDC943404200D10131DB43A2
:103FB000524200D1013300F005F8DB43524200D1F8
:103FC000013300BD002923D1002B18D1002A0CD0C9
:103FD000BC460D4F38667A6600210023FFE7FFE7F5
:103FE000FFE77A6F386F67467047002801D00748AF
:103FF000010000B50CF088FC0022002300BD020087
:104000000B00002000217047000000D0FFFFFFFFE1
:10401000002B00D0BDE0130C26D1002AE7D080B4DD
:10402000104F39667A66FFE7FFE730B4040C7B6F08
:10403000396F1B0423433B66FFE7FFE7FFE7C046FA
:1040400084B27B6F3D6F1B0423433B66FFE7FFE7B2
:10405000C04600232C042D0C7A6F386F001969417B
:10406000B0BC7047000000D0F0B594460025140E97
:1040700001D112020835140F01D112010435940F39
:1040800001D192000235D40F01D152000135D40B79
:104090000134254F7C66254C3C660E0C93B2FFE73D
:1040A000FFE7FFE73C6F6643360C7703BE4673437A
:1040B000DF0B5B04C01AB941130C7343DB18C91A38
:1040C000CE086643360CB64493B273431F0F1B01F0
:1040D000C01AB941130C73431F0B1B05C01AB94119
:1040E000860D8F023E436643360C092D24DB520AAF
:1040F0007243801A7703460A6643360C16235B1B0D
:10410000DE40DF40BF1964466643821B70460435BB
:1041100006330100D940A840C01900D30131A242A2
:1041200006D20023F0BD0000000000D0FFFFFFFF1B
:10413000121B0130F3D3F1E709277F1BFE406446D1
:10414000A2B27243801A00D20139220C7243130CBE
:104150001204821A99410B0070460435133701008E
:10416000F940A840801900D30131002B02D1A242AE
:104170000AD2F0BD013000D30131121BFAD2013B4B
:10418000F8D1A24200D2F0BD013000D30131121BA0
:10419000F7E7F0B51C0C00D080E00CB400251C0A39
:1041A00004D11B02160E3343120208351C0B04D136
:1041B0001B01160F3343120104359C0B04D19B00E5
:1041C000960F334392000235DC0B02D192185B410B
:1041D00001351C00971864410134464F7C66464CFB
:1041E0003C660E0CFFE7FFE7FFE7C0463C6F664307
:1041F000360C7703BE4697B27743C01B00D2013915
:10420000C01B00D201399FB27743C91BC91B170CD1
:1042100077437E04FF0B801BB941CE086643360C02
:104220000C2D33DBB644120B1F053A431B0B97B220
:104230007743C01B00D201399FB27743C91B170CCB
:1042400077433E043F0C801BB941860D8F023E43ED
:10425000664329277F1BFE400C3D7746AF40BF19C0
:1042600030BCA2B2ABB272437343801A9941220CA4
:104270007243130C1204801A994102000B0001379B
:10428000001BA941F9D2781E0021F0BD0C277F1B2D
:10429000FE4077467F0BAF40FF19E0E700245D1C2E
:1042A00007D0144F7D663966FFE7FFE7FFE7FFE7BA
:1042B0003C6F95B29EB265436643401BB141150CFD
:1042C0001E0C6543664336042F0C3E432D04401BF1
:1042D000B141994204D202000B0020000021F0BD40
:1042E00001D19042F7D3801A994101349942F2D317
:1042F000F6E70000000000D0FFFFFFFF484041400C
:10430000484018B4114B5B68FC46019308BD04DFBC
:10431000A345001018B40D4B1B68FC46019308BD63
:1043200000DFAD45001018B4084BDB68FC46019374
:1043300008BD0CDF6548001018B4044B9B68FC46B0
:10434000019308BD08DF094700100000402100204C
:10435000FFB550404240504059404B40594000E06A
:10436000FFB5154F4C00640D03D0BC4204D10C03C3
:1043700014D80020090D09055C00640D03D0BC426F
:1043800004D11C030AD800221B0D1B0501264B403B
:1043900009D44B4003D58B4200D18242FFBD9942E4
:1043A000FCD19042FFBD0B43DB1803431343F5D010
:1043B000C9434918FFBD0000FF07000000B5FFF723
:1043C000CFFF804100BDC04600B5FFF7C9FF01D94E
:1043D000002000BD012000BD00B5FFF7B9FF01D9E5
:1043E000002000BD012000BD00B5FFF7B1FF8041F6
:1043F00000BD012040054A00121804D85A001218C6
:1044000001D800207047012070470020704700004D
:104410000021002805D17047C1174840401AFAD042
:10442000C90713B5064B1B6898470CBC441CA24037
:104430001005120B0349091B09051943114310BD4F
:104440006C2401201F04000010B54C00620D802375
:10445000D218DB00D21A5B057E2A10DD9E3A13DAF1
:10446000CC170903490819435242D1406400013472
:104470001532202A05DAD0400843604310BD0020E1
:1044800010BD0846604310BDC80FC018013810BDEC
:1044900018B4044B5B6AFC46019308BD24DF914AC3
:1044A000001000004021002018B4044BDB6FFC46D4
:1044B000019308BD7CDF0D4B00100000402100205F
:1044C00018B4044BDB6CFC46019308BD4CDFB94CBF
:1044D000001000004021002018B4044B1B6DFC4666
:1044E000019308BD50DF554D001000004021002011
:1044F000132370B51D78012D10D00BDD1948FFF77F
:1045000065FC194C01008022200001F011F8022DF9
:1045100001D070BD144C154BA364FAE7134B124C39
:1045200023606360A360E36023616361A361E3616F
:1045300023626362A362E36223636363A363E3634F
:1045400023646364A364E36423656365A365E3652F
:1045500023666366A366E36623676367A367E3670F
:10456000A364D6E7534400004021002071450010A9
:1045700007B5604601880A0A0230DF2AFAD1C9B2BB
:10458000820804D3028840880004104300E00068D9
:10459000014A5050039007BD402100200FB403BCD6
:1045A0000CBCF0B50124E407634000E0F0B50C0D4D
:1045B000CF0F661E3605891B640503D3C9434042ED
:1045C00000D30131640D03D0661CF60A07D0E41B4A
:1045D00000207F00791C89078912803C24031D0D6F
:1045E000DF0F6E1E36059B1B6D0503D3DB43524266
:1045F00000D301336D0D03D06E1CF60A07D0ED1BFE
:1046000000227F007B1C9B079B12803D2D032F1BEC
:10461000661B58D4A446202E46DA20371400BC402E
:104620001D00BD40F24033412A4380185941CB0F51
:1046300005D0C943C0430022644250415141624603
:104640004D0D28D10D0D07D100281FD02419404150
:104650004941013A0D0DF9D0640006D3013000D371
:104660000131002C01D140084000013A0BD4941CC8
:10467000E40A04D112051144DB071944F0BDD9073F
:10468000204B194300E0D9070020F0BD0029DDD1FF
:10469000002CDBD1F0BD0132C6074008CD0728430E
:1046A0004908002EE1D0D9E73C2E29DA203E4037D8
:1046B0001400BC4000D00124F24014431A00BB4057
:1046C0001C43D317ACE7AC46202F08DA2036040091
:1046D000B4400D00B540F84039412843A5E73C2FD0
:1046E0000CDA203F40360400B44000D00124F840EA
:1046F00004430800B1400C43C117EAE71000190059
:10470000002494E70000F07FF0B50C0D661E36051E
:10471000891BE60A6405640D02D0651CED0A04D00D
:10472000002001210905803C2403A4461C0D671EBE
:104730003F05DB1BE70A6405640D02D0651CED0A2A
:1047400004D0002201231B05803C240377406444ED
:1047500097B484B296B27443070C7E43150C6F4332
:1047600080B26843361802D3012000043F18300499
:10477000350C00197D41844688B29AB250430C0C26
:1047800062431F0C7C438EB27E43921902D30126F2
:104790003604A4191604170C3618674101BC81B2FF
:1047A0009AB25143040C62431B0C5C4380B25843E1
:1047B000121802D30120000424181004130C40180E
:1047C00063412D185E410020474106BC88B293B278
:1047D00058430C0C6343120C544389B251435B1889
:1047E00002D301210904641819041A0C0918624142
:1047F0006D1856410020474118BCF902720D114353
:10480000F0026A0D1043ED020A0D03D16D1940410B
:104810004941013B124E9B1B7600B3420ED26D0004
:1048200007D30130002671416646354301D1400867
:1048300040001B05C918E4072144F0BD0BDA013321
:1048400006D1013004D101314F0D01D04908F2E702
:10485000E1070020F0BD013631050020EBE7000044
:10486000FF030000F0B51C0D671E3F05DB1BE70AC8
:104870006405640D02D0661CF60A04D000220123F0
:104880001B05803C2403D0252D060026F6432E660A
:104890001E096E66CE0FF619B44649004F0D02D0C0
:1048A0007E1CF60A03D000200021403F3F033E1B40
:1048B000B600B444013F7F05C91B49082E6F01367D
:1048C00076089C02950D25437543ED137543AD1392
:1048D00001356D10F603761B0CB4CC02450D2C434C
:1048E000A2B2B3B25A43270C7B43350C6F43A4B238
:1048F0006C431B1902D3012424043F191C041D0C12
:10490000A4187D4124196D41009A91B2ACB2614363
:10491000170C7C432B0C5F4392B25A43A41802D36A
:1049200001221204BF182204230C52187B41019C5F
:104930006C431B19520ED9010A434401A01A81B2DB
:10494000B2B2514303145A43360C734387B27743D0
:10495000D617D21900277E4136049B191704160C6E
:104960007F185E417316ED18F30100268033754100
:10497000A90F06D16400690AE8055B0A184309D249
:104980002FE00422944480337541A90AA8059B0AAC
:10499000184326D3404149412404009A019B0D004D
:1049A0005543641B4343E41A95B286B27543170C12
:1049B0007E43030C5F4392B25A43B61802D30122DE
:1049C0001204BF183204330C52197B4152429C41ED
:1049D000002C02D40022013051414008CA07104384
:1049E000490802B06246D7079210084BD218084B0C
:1049F0009A4203D212058918C919F0BD0020002A75
:104A000001DC3900F0BD01331905F5E7FD030000B5
:104A1000FE070000624618CA944600291ADAC01838
:104A200061415B463B415C46B4405246FA402243FA
:104A300044464D4662416B41904699462B46B340F1
:104A40003D41FC401C4352465B46A241AB4192466D
:104A50009B467047C01AA1414B463B414C46B4406F
:104A60004246FA40224354465D4662416B419246BB
:104A70009B462B46B3403D41FC401C4342464B46BF
:104A8000A241AB41904699467047002000217047F3
:104A9000002200B5203200F004F8080000BD00003C
:104AA00000220B15F1D410B5944600F0A5F81414AB
:104AB000013400DA0021CB17134C20476244343A0A
:104AC0000CD40C2A07DA0400914090405242203264
:104AD000D440214310BDD843D94310BD203207D460
:104AE0000C469440524220321141D040204310BD28
:104AF0000800C917203203D452422032104110BDA1
:104B00001800190010BD0000BD4A00104A00520DE7
:104B1000144BD21A13DDFF2A1EDAD205CB0FDB07A6
:104B20001A43C300400F0903490A084310435B00BE
:104B300001D301D0013070474308FBD2704702D047
:104B4000C80FC00770470A0312130132F8D1420F91
:104B5000072AF5D1012200E0FF22C80F00028018C9
:104B6000C00570478003000000210A00002104E016
:104B700000210A00C11704E00022002306E0C0461D
:104B80000022CB1758405940C01A994130B5184CF3
:104B9000A21A002903D1010010D00020203A4C15A0
:104BA00012D104D2013A001849414C0DFAD3114CEC
:104BB000A24204D212058918DB07C91830BDD243BE
:104BC000520D00200021F5E703D4013A00184941B5
:104BD000FBD50B324405C00A4D052843C90A6400C1
:104BE00003D0002460416141E1E7E0D34408F8E7E5
:104BF00032040000FE0700000A0DCC0F531E1B05F7
:104C0000C91A520503D3C943404200D30131520DA2
:104C100003D0531CDB0A07D0121B00206400611C68
:104C200089078912803A1203014BD21A704700009B
:104C3000FF030000023225D40C2A1CDA1125AD1A1C
:104C40000B002B41083207350600EE4090409140A2
:104C50003143F0CC63431A1500235A415543564360
:104C60005743BF02F412760576196741ED177F1995
:104C7000801BB94170470C220020C917490001313F
:104C80000905DBE70902030E1943000253422032F3
:104C900008D40C0019419440D840204300225041D0
:104CA000514170470800C917203B2032F1D5002040
:104CB0000021002270470000F0B5FFF79DFF54A4CB
:104CC000FFF7B8FF002904DA204C214D0019694193
:104CD000013A04B4012752A6002201239B0730CEDB
:104CE000B446001BA9410BD47E4220361D003D4135
:104CF0001C00B4401600FE40344362416B4101E0A9
:104D00000019694166460137212FE8D185B29EB26C
:104D1000754307147E43190C4F4384B24C43F1177B
:104D200036190024614109047F183404310C6419D8
:104D30007941A40F8800204389178018594104BC89
:104D400052423E32FFF71DFFF0BD00006BDE73F4F0
:104D5000FD855C2CF0B54F0050D27F154ED0013749
:104D60004FD0FFF749FF04B44902C20D114340027E
:104D700001272BA6B446002200237E4220360D00D8
:104D80003D410C00B4400600FE40344344414D41D7
:104D9000AE0F05D120002900664630CE121BAB4174
:104DA0000824A4440137212FE7D189008910121863
:104DB0004B4180BC17A413CC0137784379437C4323
:104DC0004F05C912CD17C0196941A702A415CD1707
:104DD000C9196C41DD17801859416C413E22CD172D
:104DE000AC4208D000090E073043090926073143B9
:104DF0002411043AF3E7FFF7C4FEF0BD0249002096
:104E0000F0BD02490020F0BD0000F0FF0000F07F7F
:104E1000AAB800006BDE1300A3EF0F0021170B00F0
:104E2000F34B98BFEC23F319D6104DCDE3FB470E9F
:104E30007AB9BC8ADBC18907CC542C021846E1033D
:104E4000053083E7B029F8011E1FE0874505FE0005
:104E5000249E41ACA9807F008117624515E03F0088
:104E6000E610ABA902F81F008858455500FE0F0058
:104E7000C4AAA90A80FF070056455501E0FF0300B8
:104E8000ABA92A00F8FF010045550500FEFF000010
:104E9000AAAA0080FF7F0000551500E0FF3F000038
:104EA000AB0200F8FF1F0000550000FEFF0F0000DE
:104EB0000B0080FFFF0700000100E0FFFF03000080
:104EC0000000F8FFFF0100000000FEFFFF000000EF
:104ED0000080FFFF7F00000000E0FFFF3F000000B8
:104EE00000F8FFFF1F00000000FEFFFF0F000000A2
:104EF00080FFFFFF07000000E0FFFFFF030000004E
:104F0000F8FFFFFF01000000FEFFFFFF00000000B0
:104F100000000080000000000000004000000000D1
:104F200051434343C9188C46110C83B24B4310B410
:104F3000040C614392B280B2504362431C041B0CC8
:104F4000001910BC59411304120CC018514161449E
:104F500070470000484041404840064B5B68184796
:104F6000044B1B681847034BDB681847014B9B68D1
:104F7000184700004022002007B548404140484003
:104F800001E0C04607B54200120E03D0FF2A03D14C
:104F9000420218D8C00DC0054A00120E03D0FF2AE5
:104FA00003D14A020FD8C90DC9050122414005D4D9
:104FB000414001D5814207BD884207BD01434918E0
:104FC00001D0C043001807BD00B5FFF7DBFF01D0DB
:104FD000002000BD012000BD491A002808D1084664
:104FE00070470000C10FC90700D54042002817D004
:104FF000F44603B40B4B1B68984706BC81409E38AF
:105000004042803107D20B0607D04900490AC0054B
:105010001043084360470130F8E7490A8902F5E781
:10502000704700006C24012041000A0E80231B06FB
:105030007E2A0BDD9E3A0BDAC11740024008184366
:105040005242D04049000131484370470020704728
:10505000C00FC01801387047C0420DD300B54000E2
:105060004008002100F012F8002801D4404200BDA1
:105070008020000600BD0000034BDB69FC4618479A
:105080001CDFB5540010000040220020014B5B6A79
:105090001847000040220020034BDB6FFC461847F6
:1050A0007CDFCD540010000040220020132310B5F7
:1050B00012481C78FEF78AFE0100012C0AD003DD9D
:1050C00080220F4800F034FA0E48FEF777FE0E4BB0
:1050D000186010BD0A4C5422200000F029FA0B4B36
:1050E0006365A365E36523666366A366E36623677A
:1050F0006367A367E3672362E361E5E75346000064
:10510000402200204C3300006C2401208954001000
:10511000F0B5D6464F4646460C00C0B5051C0129E1
:1051200053D0CE0F76187610012E46D00327CA171B
:1051300017407F18BF10012F37D0072313405B188B
:10514000DB109846012B2BD00F2313405B181B114B
:105150009946012B1BD01F2313405B185B119A4605
:10516000012B0BD03F210A4012199111FFF7D0FFFC
:10517000011CFFF7FBFE5346DB072FD4011CFFF792
:10518000F5FE4B46DB0702D5291CFFF7EFFE011C9D
:10519000FFF7ECFE4346DB0702D5291CFFF7E6FECE
:1051A000011CFFF7E3FEFB0714D4011CFFF7DEFE32
:1051B000F30702D5291CFFF7D9FE011CFFF7D6FE25
:1051C000E30702D5291CFFF7D1FEE0BCBA46B14681
:1051D000A846F0BD291CFFF7C9FEE6E7291CFFF72A
:1051E000C5FECBE7F8B50400061C0D1C002817DA35
:1051F0004B001B0E7F3B0ED41722D31A0BD4012178
:105200000A009A40013A2A4205D1172B28D02A00D9
:10521000DA40114224D180231B069C466444261C9C
:10522000281CFFF701FFE20D07000100002A22D031
:10523000FF2A20D064021ED12748874202DB3800B3
:10524000FF2F41DC7F3A504303007F33002B3DDDCD
:10525000FE2B3DDCFE239B059C46C005604409E017
:1052600080231B06E018291CFFF7BCFF80231B06C8
:105270009C466044F8BD002F10D03B002033402BEB
:105280000FD8002F06DAFE20311C8005FFF76BFED9
:105290007942061C301CFFF73BFFEBE7FE20800540
:1052A000E8E7301CFFF7F8FEFFF716F906000F00DD
:1052B000281CFFF7F1FE32003B00FFF73DF8FFF737
:1052C000FFF8FFF7F1F8D5E7FF20BBE70020D1E7B3
:1052D000FF20C005CEE7C04600FFFFFFF8B5CE4671
:1052E00047460D1CFE2180B58905041CFFF76CFEA6
:1052F000261C00282CD1EB0DFF2798463B409946F1
:1053000043461F4229D05D49201CFFF75DFE00285F
:1053100026D04B46FF2B20D04346FF2B41D0584B85
:10532000984538D07F224B4652429B1839D4534A75
:105330001721CB1A002B06DD163999400B00013BD3
:105340002B4200D07CE0291C201CFFF74BFF061CE1
:10535000301CC0BCB946B046F8BDFE26B605F7E71E
:105360003900E30D220019401F4216D17F224B461F
:105370005242002D18DB9A180DD417239B1A0AD419
:10538000012002009A40013A2A4204D1172BDFD0B3
:10539000DD402842DCD10026DAE7FF2B1AD1002DB0
:1053A000F9DBFF26F605D3E79A18FAD417239B1AE0
:1053B000F7D4012002009A40013A2A42F1D1172B7A
:1053C00002D0DD402842ECD0FF26E00FC007F605F2
:1053D0000643BDE72A48834227D17F224B465242EB
:1053E000002D10DB9A18DCD417239B1AD9D4012284
:1053F0009A40013A2A42D4D1172B02D0DD40EB0764
:10540000CFD5204EA4E79A18C5D417239B1AC2D42F
:1054100001229A40013A2A42BDD1172B02D0DD4029
:10542000EB07B8D58026360692E74346FF2B1DD002
:1054300080451FD07F214B4649425B1800D477E757
:10544000002AAEDB201CFFF727FEFFF745F8060019
:105450000F00281CFFF720FE32003B00FEF76CFF18
:10546000FFF72EF8FFF720F8061C71E77E2998DC7D
:1054700000266DE77E2994DD8DE7C046000080BFE1
:10548000FF010000000080FF07B5604601880A0A9E
:105490000230DF2AFAD1C9B2820804D302884088D8
:1054A0000004104300E00068014A5050039007BD1B
:1054B000402200200021C2158032803201D0024AF1
:1054C0001047002070470000CD2A0000C30FDB0703
:1054D00041000A0E07D0FF2A08D00909054A891899
:1054E0001943400770471900002070470249C91846
:1054F000FAE70000000000380000F07F10B509F066
:105500009DFE10BD10B509F0F7FB10BD10B509F0F8
:105510009FFE10BD01480421014B184720160020B2
:10552000DD3D0010014B1B681847000020160020CD
:10553000014B5B68184700002016002010B5FFF7EC
:10554000E5FF10BDF0B546464F46D6468046C0B58D
:105550000E00171E3FDD4B1E9946214B01250024EE
:1055600000209A460DE04B461B5D0D3B5A425341CD
:10557000325DDBB20A2A0BD02B00013401359F4289
:105580001ADD002CEFD14346325D1B7C0A2AF3D191
:10559000002BF1D1A04204DA4346211A1B683018CF
:1055A0009847434650461B6802219847013428001B
:1055B0002B0001359F42E4DC874204DD4346391A63
:1055C0001B6830189847F619013E33780D3B5A4254
:1055D000534142461374E0BCBA46B146A846F0BDFA
:1055E000CC0E0110F0B557464546DE464E46D02358
:1055F000E0B51B061C68354B83B007000D00180092
:1056000001A990469A460BF0C7F98146002807D1B8
:10561000019B9C4204D050460BF0F6F901239946B9
:105620006B1C03D138000AF07DFB0500284B1C6879
:10563000002C2FD00A23274E9B4602E0E468002C62
:1056400028D02268002AF9D03368002B01D0A34269
:10565000F4D1637C002B27D02A0039002000FFF70B
:1056600071FF4346002BE9D06B465A461A71637CA2
:10567000002B1DD0237C002B23D00121236801A8FF
:1056800098476B461B790D3B5A4253412374E4689B
:10569000002CD6D14B46002B0FD103B0F0BCBB463B
:1056A000B246A946A046F0BD290038009047D8E789
:1056B0000121236801A89847C0E750460BF01CF968
:1056C000EBE70221044823689847DAE71821002015
:1056D0001C220120EC230120CC0E011010B582B059
:1056E0006B4604000022D81D01210470FFF77AFFE9
:1056F000200002B010BDC04670B504000AF012FBD5
:105700000122010005002000FFF76CFF084B1C6818
:10571000002C06D06368002B05D09847E468002C65
:10572000F8D1280070BDE468002CF3D1F9E7C04639
:105730001C220120F0B557464E46DE464546E0B5F0
:105740000E00170083B0002830D1254B254D1A6874
:105750005B6801929946244B9B46244B9A465B46D4
:105760001B689846002B36D01C0002E0E468002C31
:1057700013D02B68002B01D0A342F7D1A368002BD4
:10578000F4D03900300098470028EFDD03B0F0BCBA
:10579000BB46B246A946A046F0BD53465B6A994552
:1057A000DDD852460199926A8A4202D301204042D2
:1057B000ECE79945FAD14346002BD0D10B4A536A06
:1057C0009945FCD8916A01988142EFD29945F6D06B
:1057D00001204042DAE753465B6A9945E1D9EDE79B
:1057E000F80B0110EC2301201C2201200040054091
:1057F00010B50B001400012806D11800002221006A
:10580000FFF7F0FE200010BD01204042FBE7C0463C
:10581000F0B5D6468246344B4F4653445A42534124
:1058200080229202944646465B421B0C2F4A1B0480
:105830006344C0B513602E4A0D002E491360180052
:105840008A6890438046FAD10620FCF7F3FD814632
:1058500080200221EF0D6E02AB0DAA02400005E090
:10586000914507D392197B4181423BD00C00023114
:10587000002BF5D080272602361B7F0002E0361B66
:10588000012F08D031004846013FFEF7F5FA854266
:10589000F5D23B02984653461C611A6843465A406B
:1058A000FF231B021A40802351465B010B431A6001
:1058B00007250A68CF216A400A401A6050468022B4
:1058C00003249201243010430460504610C86C40F9
:1058D00021401960022310430360E0BCBA46B14680
:1058E000A846F0BD0C00C5E70040FCBF00E000404A
:1058F00000F0004000C0004000234360836043612B
:1059000083610D4B8722C3620C4B10B543630C4B74
:10591000F02443870B4B0261C363030002622C3304
:1059200078320160C460C4611A758023DB0443646B
:105930008164816210BDC04600C00340F000870052
:10594000111000001213FF14F8B51023CE460025E5
:1059500047469946324C334E80B5E664E56365644C
:10596000A564E6642364033B0700E3630421062087
:105970009846FBF775FC4B46E664E5636564A564F1
:10598000E664236443460421E3630720FBF768FCD5
:105990004B4626662565A565E5652666636543462F
:1059A000042123650820FBF75BFC05210C20FBF795
:1059B00057FCD024802324065B01A362002201212E
:1059C0000C20FBF765FC05210D20FBF749FC80232B
:1059D0009B01A362002201210D20FBF759FC052148
:1059E0000E20FBF73DFC8023DB01A3620022012196
:1059F0000E20FBF74DFC05210F20FBF731FC802327
:105A00001B020022A36201210F20FBF741FC38009A
:105A100001212C3000F014F8C0BCB946B046F8BDE6
:105A200000000540FFFF000010B500212C3000F001
:105A300005FA10BD10B52C3000F03AFA10BDC04682
:105A4000F0B5C64600B5040082B00E00816900685A
:105A5000FFF7DEFE0F20012505212056FBF700FC95
:105A60000F232A00E356D0279A400E203F067A6281
:105A700005212056FBF7F4FB0E23E35610209D4032
:105A80007D6201212056FBF7EBFB112001212056FE
:105A9000FBF7E6FB12202056431C02D00121FBF746
:105AA000DFFB14202056431C0DD00521FBF7D8FB4B
:105AB000142001232056D022834012069362002135
:105AC0000122FBF7E5FB13202056431C15D00207EB
:105AD000520F93009B18D14AD149944600229B0053
